{
  "contractName": "PokemonFight",
  "abi": [
    {
      "anonymous": false,
      "inputs": [
        {
          "indexed": false,
          "internalType": "string",
          "name": "_message",
          "type": "string"
        }
      ],
      "name": "BattleStatus",
      "type": "event"
    },
    {
      "constant": true,
      "inputs": [],
      "name": "BattleNo",
      "outputs": [
        {
          "internalType": "uint256",
          "name": "",
          "type": "uint256"
        }
      ],
      "payable": false,
      "stateMutability": "view",
      "type": "function"
    },
    {
      "constant": false,
      "inputs": [
        {
          "internalType": "string",
          "name": "pokename1",
          "type": "string"
        },
        {
          "internalType": "uint256",
          "name": "pokehealth1",
          "type": "uint256"
        },
        {
          "internalType": "string",
          "name": "pokename2",
          "type": "string"
        },
        {
          "internalType": "uint256",
          "name": "pokehealth2",
          "type": "uint256"
        }
      ],
      "name": "battleStart",
      "outputs": [],
      "payable": false,
      "stateMutability": "nonpayable",
      "type": "function"
    },
    {
      "constant": false,
      "inputs": [
        {
          "internalType": "string",
          "name": "pokename1",
          "type": "string"
        },
        {
          "internalType": "uint256",
          "name": "pokehealth1",
          "type": "uint256"
        },
        {
          "internalType": "string",
          "name": "pokename2",
          "type": "string"
        },
        {
          "internalType": "uint256",
          "name": "pokehealth2",
          "type": "uint256"
        }
      ],
      "name": "battleContinue",
      "outputs": [],
      "payable": false,
      "stateMutability": "nonpayable",
      "type": "function"
    }
  ],
  "bytecode": "0x6080604052600060015534801561001557600080fd5b50610753806100256000396000f3fe608060405234801561001057600080fd5b50600436106100415760003560e01c806368ded341146100465780639953b70014610062578063e3628db414610080575b600080fd5b610060600480360361005b91908101906104f9565b61009c565b005b61006a6102c7565b604051610077919061065b565b60405180910390f35b61009a600480360361009591908101906104f9565b6102cd565b005b60008314806100ab5750600081145b156101dd576000806001548152602001908152602001600020604051806040016040528060405180604001604052808881526020018781525081526020016040518060400160405280868152602001858152508152509080600181540180825580915050906001820390600052602060002090600402016000909192909190915060008201518160000160008201518160000190805190602001906101519291906103eb565b5060208201518160010155505060208201518160020160008201518160000190805190602001906101839291906103eb565b50602082015181600101555050505050600180600082825401925050819055507f94e9bb5b1ee6aaf8a3cee27c4a287f4ef2aa5b8affc2d4ab5d8ce2c0f616f5e36040516101d09061061b565b60405180910390a16102c1565b60008060015481526020019081526020016000206040518060400160405280604051806040016040528088815260200187815250815260200160405180604001604052808681526020018581525081525090806001815401808255809150509060018203906000526020600020906004020160009091929091909150600082015181600001600082015181600001908051906020019061027e9291906103eb565b5060208201518160010155505060208201518160020160008201518160000190805190602001906102b09291906103eb565b506020820151816001015550505050505b50505050565b60015481565b60008060015481526020019081526020016000206040518060400160405280604051806040016040528088815260200187815250815260200160405180604001604052808681526020018581525081525090806001815401808255809150509060018203906000526020600020906004020160009091929091909150600082015181600001600082015181600001908051906020019061036e9291906103eb565b5060208201518160010155505060208201518160020160008201518160000190805190602001906103a09291906103eb565b506020820151816001015550505050507f94e9bb5b1ee6aaf8a3cee27c4a287f4ef2aa5b8affc2d4ab5d8ce2c0f616f5e36040516103dd9061063b565b60405180910390a150505050565b828054600181600116156101000203166002900490600052602060002090601f016020900481019282601f1061042c57805160ff191683800117855561045a565b8280016001018555821561045a579182015b8281111561045957825182559160200191906001019061043e565b5b509050610467919061046b565b5090565b61048d91905b80821115610489576000816000905550600101610471565b5090565b90565b600082601f8301126104a157600080fd5b81356104b46104af826106a3565b610676565b915080825260208301602083018583830111156104d057600080fd5b6104db8382846106ea565b50505092915050565b6000813590506104f3816106f9565b92915050565b6000806000806080858703121561050f57600080fd5b600085013567ffffffffffffffff81111561052957600080fd5b61053587828801610490565b9450506020610546878288016104e4565b935050604085013567ffffffffffffffff81111561056357600080fd5b61056f87828801610490565b9250506060610580878288016104e4565b91505092959194509250565b6000610599600c836106cf565b91507f426174746c6520656e64656400000000000000000000000000000000000000006000830152602082019050919050565b60006105d9600e836106cf565b91507f426174746c6520737461727465640000000000000000000000000000000000006000830152602082019050919050565b610615816106e0565b82525050565b600060208201905081810360008301526106348161058c565b9050919050565b60006020820190508181036000830152610654816105cc565b9050919050565b6000602082019050610670600083018461060c565b92915050565b6000604051905081810181811067ffffffffffffffff8211171561069957600080fd5b8060405250919050565b600067ffffffffffffffff8211156106ba57600080fd5b601f19601f8301169050602081019050919050565b600082825260208201905092915050565b6000819050919050565b82818337600083830152505050565b610702816106e0565b811461070d57600080fd5b5056fea365627a7a723158201792dbadaf9823e31bfb0e5b93262c5ff590a2d0f5fefa519d03556467d04d936c6578706572696d656e74616cf564736f6c63430005100040",
  "source": "pragma solidity >=0.4.21 <0.7.0;\npragma experimental ABIEncoderV2;\n\ncontract PokemonFight {\n    event BattleStatus(string _message);\n\n    struct PokemonData {\n        string PokemonName;\n        uint256 PokemonHealth;\n    }\n\n    struct PokeBattle {\n        PokemonData Pokemon1;\n        PokemonData Pokemon2;\n    }\n    mapping(uint256 => PokeBattle[]) BattleDetails;\n    uint256 public BattleNo = 0;\n    function battleStart(\n        string memory pokename1,\n        uint256 pokehealth1,\n        string memory pokename2,\n        uint256 pokehealth2\n    ) public {\n        BattleDetails[BattleNo].push(\n            PokeBattle(\n                PokemonData(pokename1, pokehealth1),\n                PokemonData(pokename2, pokehealth2)\n            )\n        );\n        emit BattleStatus(\"Battle started\");\n    }\n\n    function battleContinue(\n        string memory pokename1,\n        uint256 pokehealth1,\n        string memory pokename2,\n        uint256 pokehealth2\n    ) public {\n        if (pokehealth1 == 0 || pokehealth2 == 0) {\n            BattleDetails[BattleNo].push(\n                PokeBattle(\n                    PokemonData(pokename1, pokehealth1),\n                    PokemonData(pokename2, pokehealth2)\n                )\n            );\n            BattleNo += 1;\n            emit BattleStatus(\"Battle ended\");\n        } else {\n            BattleDetails[BattleNo].push(\n                PokeBattle(\n                    PokemonData(pokename1, pokehealth1),\n                    PokemonData(pokename2, pokehealth2)\n                )\n            );\n        }\n    }\n\n}\n",
  "sourcePath": "/home/gadsater/code/eth-vue-ws/contracts/PokemonFight.sol",
  "compiler": {
    "name": "solc",
    "version": "0.5.16+commit.9c3226ce.Emscripten.clang"
  },
  "schemaVersion": "3.0.23",
  "updatedAt": "2020-03-13T12:18:46.266Z",
  "networkType": "ethereum",
  "devdoc": {
    "methods": {}
  },
  "userdoc": {
    "methods": {}
  }
}